:020000040000FA
:060000000A128A11EE2F26
:100DB80083160317890183160313860108158815FE
:100DC800080083120313080CF200720C0139F300B7
:100DD800F4017308F0007408F100F22E08003F34A3
:100DE80006345B344F3466346D347D3407347F34D5
:100DF8006F3477347C3439345E34793471347E0816
:100E08008A007F0882000A128A1103270A128A11AF
:100E18008000840A04087D0603190034FF0A0319B8
:100E2800FE0A072FF0001030700203181C2F1D2F28
:100E3800262F7008203E84008313000883120313B2
:100E480086002A2F8312031386012A2F0800FA012D
:100E58000A128A11DC260A128A11F901332F7A083C
:100E68000A128A1116270A128A11732F0A128A1176
:100E7800E5260A128A1170037104031D442F452FB9
:100E8800332FF901F90A332F332F0A30F0000030DD
:100E9800F1000130F7007708FA077A08F200F30149
:100EA800F21BF3030A128A118B270A128A1170089F
:100EB800F8007808FA000230F7007708F900332FB5
:100EC8000A128A11E5260A128A1170087104031D94
:100ED8006E2F6F2F332FF901332F332F332F7908CC
:100EE800F700F8017808003A03197B2F332F7708A9
:100EF800003A03193A2F013A0319492F033A031903
:100F0800642F332F332F332F0A128A110028F6014A
:100F1800F31F8F2F902F982FF209F309F20A031964
:100F2800F30AF601F60A982FF11F9B2F9C2FA22F88
:100F3800F009F109F00A0319F10AA22F70087104E7
:100F48000319A72FA82FDD2FF501F50AB72F0130B8
:100F58000310F00DF10DFF3E031DAC2F0130F4001E
:100F68007408F507B72FF11FBA2FBB2FAB2FBD2F72
:100F7800BD2F71087302031DC32F70087202031C72
:100F8800C62FC72FCE2F7008F2027108031CF30377
:100F9800F302CE2F01300310F10CF00CFF3E031DBD
:100FA800CF2F0130F502031DDA2FDB2FBD2FDD2FE8
:100FB800DD2F76080319E12FE22FE82FF209F30954
:100FC800F20A0319F30AE82F7308F1007208F00017
:100FD800ED2F080083133030FD000630FE00F3309B
:100FE800FF00203084000A128A1107270A128A118A
:080FF80083010A128A112B2F5C
:04400E00D4E0FFFFFC
:00000001FF
