:020000040000FA
:060000000A128A11EE2F26
:100EA2008316031789018316031386010815881513
:100EB200080083120313080CF200720C0139F300CC
:100EC200F4017308F0007408F100672F08003F3442
:100ED20006345B344F3466346D347D3407347F34EA
:100EE2006F3477347C3439345E34793471347E082B
:100EF2008A007F0882000A128A1178270A128A1150
:100F02008000840A04087D0603190034FF0A0319CD
:100F1200FE0A7C2FF000103070020318912F922FDE
:100F22009B2F7008203E8400831300088312031352
:100F320086009F2F8312031386019F2F0800F7015B
:100F42000A128A1151270A128A11F801A82F77086A
:100F52000A128A118B270A128A11D62F0A128A11B3
:100F62005A270A128A1170037104031DB92FBA2F6E
:100F7200A82FF801F80AA82FA82F0130F50075084C
:100F8200F7070230F5007508F800A82F0A128A1137
:100F92005A270A128A1170087104031DD12FD22F09
:100FA200A82FF801A82FA82FA82F7808F500F6017E
:100FB2007608003A0319DE2FA82F7508003A0319A4
:100FC200AF2F013A0319BE2F033A0319C72FA82FD7
:100FD200A82FA82F0A128A11002883133030FD008F
:100FE2000730FE006830FF00203084000A128A11A8
:0E0FF2007C270A128A1183010A128A11A02F8D
:04400E00D4E0FFFFFC
:00000001FF
